{
  "contractName": "FoodSafe",
  "abi": [
    {
      "inputs": [],
      "name": "GetTrailCount",
      "outputs": [
        {
          "internalType": "uint8",
          "name": "",
          "type": "uint8"
        }
      ],
      "stateMutability": "nonpayable",
      "type": "function"
    },
    {
      "inputs": [
        {
          "internalType": "uint256",
          "name": "LocationId",
          "type": "uint256"
        },
        {
          "internalType": "string",
          "name": "Name",
          "type": "string"
        },
        {
          "internalType": "string",
          "name": "Secret",
          "type": "string"
        }
      ],
      "name": "AddNewLocation",
      "outputs": [],
      "stateMutability": "nonpayable",
      "type": "function"
    },
    {
      "inputs": [
        {
          "internalType": "uint256",
          "name": "TrailNo",
          "type": "uint256"
        }
      ],
      "name": "GetLocation",
      "outputs": [
        {
          "internalType": "string",
          "name": "",
          "type": "string"
        },
        {
          "internalType": "uint256",
          "name": "",
          "type": "uint256"
        },
        {
          "internalType": "uint256",
          "name": "",
          "type": "uint256"
        },
        {
          "internalType": "uint256",
          "name": "",
          "type": "uint256"
        },
        {
          "internalType": "string",
          "name": "",
          "type": "string"
        }
      ],
      "stateMutability": "nonpayable",
      "type": "function"
    }
  ],
  "bytecode": "0x60806040526000600160006101000a81548160ff021916908360ff16021790555034801561002c57600080fd5b506108b08061003c6000396000f3fe608060405234801561001057600080fd5b50600436106100415760003560e01c8063988bbca314610046578063bbe42af814610062578063ec85862d14610080575b600080fd5b610060600480360381019061005b919061051b565b6100b4565b005b61006a6101ec565b6040516100779190610652565b60405180910390f35b61009a600480360381019061009591906104f2565b610203565b6040516100ab9594939291906105f1565b60405180910390f35b6100bc6103a3565b82816000018190525083816020018181525050818160800181905250428160600181815250506000600160009054906101000a900460ff1660ff161461012e57600080600160009054906101000a900460ff1660ff168152602001908152602001600020600101548160400181815250505b80600080600160009054906101000a900460ff1660ff168152602001908152602001600020600082015181600001908051906020019061016f9291906103d2565b5060208201518160010155604082015181600201556060820151816003015560808201518160040190805190602001906101aa9291906103d2565b509050506001600081819054906101000a900460ff16809291906101cd9061079b565b91906101000a81548160ff021916908360ff1602179055505050505050565b6000600160009054906101000a900460ff16905090565b60606000806000606060008087815260200190815260200160002060000160008088815260200190815260200160002060010154600080898152602001908152602001600020600201546000808a8152602001908152602001600020600301546000808b815260200190815260200160002060040184805461028490610738565b80601f01602080910402602001604051908101604052809291908181526020018280546102b090610738565b80156102fd5780601f106102d2576101008083540402835291602001916102fd565b820191906000526020600020905b8154815290600101906020018083116102e057829003601f168201915b5050505050945080805461031090610738565b80601f016020809104026020016040519081016040528092919081815260200182805461033c90610738565b80156103895780601f1061035e57610100808354040283529160200191610389565b820191906000526020600020905b81548152906001019060200180831161036c57829003601f168201915b505050505090509450945094509450945091939590929450565b6040518060a0016040528060608152602001600081526020016000815260200160008152602001606081525090565b8280546103de90610738565b90600052602060002090601f0160209004810192826104005760008555610447565b82601f1061041957805160ff1916838001178555610447565b82800160010185558215610447579182015b8281111561044657825182559160200191906001019061042b565b5b5090506104549190610458565b5090565b5b80821115610471576000816000905550600101610459565b5090565b600061048861048384610692565b61066d565b9050828152602081018484840111156104a057600080fd5b6104ab8482856106f6565b509392505050565b600082601f8301126104c457600080fd5b81356104d4848260208601610475565b91505092915050565b6000813590506104ec81610863565b92915050565b60006020828403121561050457600080fd5b6000610512848285016104dd565b91505092915050565b60008060006060848603121561053057600080fd5b600061053e868287016104dd565b935050602084013567ffffffffffffffff81111561055b57600080fd5b610567868287016104b3565b925050604084013567ffffffffffffffff81111561058457600080fd5b610590868287016104b3565b9150509250925092565b60006105a5826106c3565b6105af81856106ce565b93506105bf818560208601610705565b6105c881610852565b840191505092915050565b6105dc816106df565b82525050565b6105eb816106e9565b82525050565b600060a082019050818103600083015261060b818861059a565b905061061a60208301876105d3565b61062760408301866105d3565b61063460608301856105d3565b8181036080830152610646818461059a565b90509695505050505050565b600060208201905061066760008301846105e2565b92915050565b6000610677610688565b9050610683828261076a565b919050565b6000604051905090565b600067ffffffffffffffff8211156106ad576106ac610823565b5b6106b682610852565b9050602081019050919050565b600081519050919050565b600082825260208201905092915050565b6000819050919050565b600060ff82169050919050565b82818337600083830152505050565b60005b83811015610723578082015181840152602081019050610708565b83811115610732576000848401525b50505050565b6000600282049050600182168061075057607f821691505b60208210811415610764576107636107f4565b5b50919050565b61077382610852565b810181811067ffffffffffffffff8211171561079257610791610823565b5b80604052505050565b60006107a6826106e9565b915060ff8214156107ba576107b96107c5565b5b600182019050919050565b7f4e487b7100000000000000000000000000000000000000000000000000000000600052601160045260246000fd5b7f4e487b7100000000000000000000000000000000000000000000000000000000600052602260045260246000fd5b7f4e487b7100000000000000000000000000000000000000000000000000000000600052604160045260246000fd5b6000601f19601f8301169050919050565b61086c816106df565b811461087757600080fd5b5056fea2646970667358221220326fef02d590f26a566cee943c546711237c2e8788ed8882083935694ff1440864736f6c63430008030033",
  "immutableReferences": {},
  "source": "pragma solidity ^0.8.3;\r\n\r\ncontract FoodSafe{\r\n    struct Location{\r\n        string Name;\r\n        uint LocationId;\r\n        uint PreviousLocationId;\r\n        uint Timestamp;\r\n        string Secret;\r\n    }\r\n\r\n    mapping(uint => Location) Trail;\r\n    uint8 TrailCount=0;\r\n\r\n    function GetTrailCount() public returns(uint8){\r\n        return TrailCount;\r\n    }\r\n\r\n    function AddNewLocation(uint LocationId, string memory Name, string memory Secret) public {\r\n        Location memory newLocation;\r\n        newLocation.Name = Name;\r\n        newLocation.LocationId = LocationId;\r\n        newLocation.Secret = Secret;\r\n        newLocation.Timestamp = block.timestamp;\r\n\r\n        if(TrailCount!=0){\r\n            newLocation.PreviousLocationId = Trail[TrailCount].LocationId;\r\n        }\r\n        Trail[TrailCount] = newLocation;\r\n        TrailCount++;\r\n    }\r\n\r\n    function GetLocation(uint TrailNo) public returns(string memory,uint,uint,uint,string memory){\r\n        return (Trail[TrailNo].Name,Trail[TrailNo].LocationId,Trail[TrailNo].PreviousLocationId,Trail[TrailNo].Timestamp,Trail[TrailNo].Secret);\r\n    }\r\n}\r\n\r\n",
  "sourcePath": "C:/Users/HP 15/Desktop/foodsafe/contracts/foodsafe.sol",
  "compiler": {
    "name": "solc",
    "version": "0.8.3+commit.8d00100c.Emscripten.clang"
  },
  "schemaVersion": "3.3.4",
  "updatedAt": "2021-04-13T06:20:29.122Z",
  "devdoc": {
    "kind": "dev",
    "methods": {},
    "version": 1
  },
  "userdoc": {
    "kind": "user",
    "methods": {},
    "version": 1
  }
}